:02000002D0002C
:1040000000400D00A0B80E00000006000C000501E5
:084010000401E80500000000B6
:0440180080890E008D
:1040200009480A49884208B505D0094A824202D0A7
:10403000121A14F050FB0748074A0021121A14F014
:1040400070FB014808BD00BFDCB90320CCB70E00EF
:1040500088BA032088BA0320F0E7032070B513F074
:10406000CFFA074C074BE41AA40800251E46A542C8
:1040700004D056F8253098470135F8E770BD00BFE9
:10408000BCB70E007CB70E0000F03CB808B500F0DD
:1040900097F8BDE8084013F075BA11F005BE11F0AD
:1040A00003BE11F009BE11F007BE0078B0FA80F02F
:1040B0004009704701230370704790B502F108036F
:1040C00085B023F0070300AFADEB030D144668463F
:1040D00014F001FB0023694638460DF8043012F055
:1040E000FEFC384612F0B4FC1437BD4690BD00000B
:1040F00008B512F0A6FD024B1860012008BD00BFF4
:10410000DCB903201FB50023022215491548164CBF
:1041100011F052FD154A1649164811F0A6FEBF23AC
:104120000293154B0193C0230093A122134B144912
:10413000204600F015FE1349204600F0FDFF124A0C
:104140001249204600F0A6FC13F060F94FF4165116
:1041500013F050F90E4804B0BDE8104000F036B935
:10416000DCB90320358A0E0090BA0320428A0E0083
:10417000F1400D003F5E0E00A18B0E00E18A0E00A3
:1041800094890E00558A0E00608A0E00658A0E0022
:1041900048C1032038B5046805467CB16368013B1B
:1041A00063605BB9236820469B689847A368013B1E
:1041B000A3601BB923682046DB689847284638BDB2
:1041C00030B53348334C8BB000F0EAF9062106A82D
:1041D00012F0E8FC06A9204612F0CBFC06A812F06B
:1041E00037FC2B4800F0EEF9062106A812F0DAFCA5
:1041F00006A9294812F0BDFC06A812F029FC2748A0
:1042000000F069FB38B1254800F0A6FC226824497B
:10421000224800F03FFC2349234D06A812F05FFC22
:104220001C4906A812F0EFFC204912F0F8FC1A49CC
:1042300012F0E9FC1E4912F0F2FC014602A812F04D
:104240008DFC06A812F004FC2B78029A8DF8003041
:1042500018493C2306A811F029FF07A8FFF79AFF89
:104260002B78226814498DF8003006A83C2311F001
:104270001DFF07A8FFF78EFF104B1B684FF47A70E5
:10428000584311F051FD02A812F0E2FB0BB030BD13
:1042900048C1032038C103205CC1032090BA032029
:1042A000718A0E00848A0E008CBA0320948A0E0054
:1042B000A28A0E00788A0E00A48A0E00DCB90320C0
:1042C000F8B5184B184D194C194F1A4E01221A7097
:1042D00011F0EEFA184B194942F2B322284600F0C9
:1042E00023FA224616492846164D13F03DFA0622B7
:1042F0000221154800F064F83946284612F0EFFB19
:104300002846124D2246314613F02EFA39462846E9
:1043100012F0E5FB224631462846BDE8F84013F08E
:1043200023BA00BF8CBA032090BA032088BA0320B6
:1043300029950E00516A0E00BB400D00AF8A0E0099
:10434000234B0D0038C1032048C103205CC103206A
:1043500010B503682F2B044604D9074A00210A2010
:1043600011F0E6FB23681F2B83BF03F01F032360BC
:1043700002484FF0A04010BD81580E0000030050CD
:1043800007B502AB43F8040D1846FFF7E1FF019AA9
:1043900001239340C0F8083503B05DF804FB07B56E
:1043A00002AB43F8040D1846FFF7D2FFD0F81035E2
:1043B000019823FA00F000F0010003B05DF804FB5F
:1043C00002720122817102747047000010B5002151
:1043D0000446807913F076F9074AA37912681B0125
:1043E000D118D05C4B7803F01F0343EA4010FFF76D
:1043F000C7FF0023E36010BD6CC103202DE9F74F18
:10440000044611F045FAE368834284BF0023E36069
:10441000237C33B9E368C01AB0F5FA6F01D20120EA
:10442000A8E00025554E257411F032FAA3793268C0
:10443000E0601B01D1182571E570A57065702570CD
:10444000D05C4B7803F01F0343EA4010FFF798FF5E
:10445000FA2011F069FC0121A07913F033F9A37956
:1044600032681B01D118D25C4B7802A803F01F03FD
:1044700043EA421340F8043DFFF76AFF019B4FF007
:10448000010808FA03F3C0F80C35142011F04CFCB5
:1044900012F00EF8A37932681B01D118D05C4B786A
:1044A00003F01F0343EA4010FFF76AFF282011F0D2
:1044B000E7F92946A07913F005F92F464FF0000BD4
:1044C000A37932681B01D11812F803A04B7803F0CE
:1044D0001F0343EA4A1A5046FFF761FF5046FFF7B1
:1044E0005EFF80455FFA8BF908D101200BF1010BCB
:1044F00011F0C6F9BBF1FF0FE2D1D946A3793268BA
:104500001B01D11812F803804B7803F01F0343EA14
:1045100048184046FFF743FF4046FFF740FFB9F118
:10452000FF0F5FFA80F814D0032D0ED9EB070CD4DF
:10453000FA080137A35C5B00DBB2A354217A49453A
:104540003CBF43F00103A354FFB20135EDB2552D3A
:10455000B4D111F0AFFF272F0BD9227863782179DE
:104560001344A2781344E2781344DBB299423FF437
:1045700056AF002003B0BDE8F08F00BF6CC1032030
:1045800010B50446FFF73AFF28B1A37800EE103AC1
:10459000B8EE400A10BD9FED010A10BD0000C07FBB
:1045A000FFF7EEBF10B50446FFF728FF28B12378C8
:1045B00000EE103AB8EE400A10BD9FED010A10BDA2
:1045C0000000C07FFFF7EEBF08B511F071F9014B95
:1045D000186008BD6CC103207047000070B5054627
:1045E0000C46164612F07FFB58B12146324628464B
:1045F00012F063FB044638B1284612F073FB2046E4
:1046000070BD4FF0FF3070BD004870BD8097FFFF58
:1046100070B504460D46164612F065FB58B12046AB
:1046200012F04CFD28B132462946204612F009FC12
:1046300018B9024870BD4FF0FF3070BD0097FFFF02
:1046400070B50E4615460C462B1B3344032B04D97C
:1046500011F00EF944F8040BF6E7AC0806EB8404FD
:104660003544AC4204D011F003F904F8010BF8E72B
:10467000002070BD00B5ADF2044D0B46054A40F276
:10468000FF3168460FF096FE00200DF2044D5DF8F4
:1046900004FB00BF29950E0038B584690A4B0360FE
:1046A00005467CB16368013B63605BB923682046C3
:1046B0009B689847A368013BA3601BB92368204609
:1046C000DB689847284638BD00B50E0010B5044693
:1046D000FFF7E2FF20461C2113F04BF8204610BDE7
:1046E00038B504461D46059B0363002084F8A506E3
:1046F00084F8A406606302B1A26419B104F1380021
:1047000012F03FFA049BE0692365069BA4F84C5025
:10471000A4F8543008B1FFF7C6FCB4F85400FFF712
:10472000BEFCE06138BD00002DE9FF4104460025D4
:10473000174698460E4612F05DFDE5610C4904F1FE
:10474000380012F0CCF9012384F8A636FF23029337
:104750000F2300932046A564CDF804803B462A46EB
:104760003146FFF7BDFF204604B0BDE8F08100BF31
:1047700029950E000233F0B59BB20D466C1A15F860
:10478000016BA4B23EB1B0F854709F4203D95C1CD7
:10479000D654A3B2F2E7191B0A44211202F8021CF4
:1047A00002F8014C1846F0BD10B590F8A54614B9B2
:1047B00012F083FA03E000F534700EF045FC80B28D
:1047C00010BDF7B507468E461E461D46002402A9B9
:1047D00005F07F032144ED0918BF43F08003013445
:1047E00001F8043CE4B2002DF1D1C4F10403D11866
:1047F00002F803E0A54206DA2B1B01A81344285C4B
:1048000058710135F6E7721C22443846FFF7CCFF99
:10481000054611F03DF801347862A019431B584257
:10482000584103B0F0BD38B5C369E0221A70C369BE
:1048300000255D7004460222C169FFF7B5FF94F8B8
:10484000A536BBB104F20C4084F8A45684F8A556F2
:1048500010F0C3FB04F5A86010F0BFFB04F2746015
:1048600006F0A5FC04F563700EF00CFE04F5347040
:104870000EF06AFD204612F009FC11F009F86062A2
:10488000A06238BD37B590F8A53604464BB920462E
:1048900012F014FC0028FAD0204612F0B8FAC0B288
:1048A00017E090F8A4369BB100F5347501220DF1A4
:1048B000070128460EF040FB002806DA10F5D24F1B
:1048C000F4D02046FFF7AFFF02E09DF8070000E0BC
:1048D000FF2003B030BD10B5044612F004FA30B129
:1048E00094F8A53613B194F8A40610BD012010BDAC
:1048F0002DE9F0470546C4698946FFF7C3FF2070DC
:10490000EB694FF0010A93F80080002756462846CD
:10491000FFF7E1FF002849D02846FFF7B3FFEB6916
:10492000985500F07F0313FB0AF31F44741C030621
:10493000A4B2BFB24FEACA1A01D52646E7E708F08B
:10494000F008631EB8F1300F89F8003013D1284603
:10495000D5F81C80FFF796FF08F804002846F41CE1
:10496000D5F81C800236FFF78DFFB6B2A4B208F866
:104970000600022300E000231B1B9EB2A3199BB27A
:104980009F420BD92846FFF77DFFB5F85430A3426C
:1049900084BFEB6918550134A4B2EFE7B5F85400B1
:1049A000A0422CBF20460020BDE8F0874FF6FF70E4
:1049B000BDE8F0872DE9F14F0D9E9DF828809DF808
:1049C0002C509DF8307004468B4691469A46FFF76E
:1049D00082FF00284CD0B4F85420E069002113F085
:1049E000A0FE0523E26959462046FFF7C3FE6B1E71
:1049F000012B12D8238CE26901339BB223841B1252
:104A00001354411C89B2E369228C5A54023080B29B
:104A10001EB1238C5A1C22843380002291B2831849
:104A20008A459BB20AD9B4F854609E4202F1010251
:104A300004D919F80160E169CE54EFE7B8F1000F2D
:104A40000CBF302131210FB141F00801022D02D1FC
:104A500041F0040103E0012D08BF41F00201053BD4
:104A6000E2699BB2204601B0BDE8F04FFFF7A9BE56
:104A700001B0BDE8F08F1FB5089C03940024029498
:104A80009DF81C4001949DF818400094FFF792FF98
:104A900004B010BD7FB5054610460E46144613F00F
:104AA000A2FE00230293019300932246034631465F
:104AB0002846FFF7E0FF04B070BD38B504460D4648
:104AC000FFF709FF90B1E36962221A70E3690222DD
:104AD0005A70E3692A129A70E369DD700422E16971
:104AE0002046FFF761FE003018BF012038BD38B501
:104AF00004460D46FFF7EFFE90B1E36972221A708B
:104B0000E36902225A70E3692A129A70E369DD7040
:104B10000422E1692046FFF747FE003018BF01205C
:104B200038BD10B50446FFF7D6FE28B12046FFF782
:104B30007AFEE06911F0C0F804F1380011F088FF46
:104B40002046FFF7A9FD204610BD08B512F0B6FAC1
:104B5000003018BF012008BD2DE9F04F83B000AF31
:104B60000446FFF7B8FEA0B110F092FE226D4FF49C
:104B70007A735343A26A821A9A42054603D8626A3C
:104B8000821A934217D294F82C302BB12046FFF7AB
:104B90004AFE4FF00009DDE0E269C0211170E269D0
:104BA0005370E16902222046FFF7FEFD0123656292
:104BB000A56284F82C302046FFF7C7FF8146002805
:104BC000E7D0F91D2046FFF793FE0246002800F0CB
:104BD000C180E369A562187800F0F00130297DD129
:104BE000D4F830B0BBF1000F00F0B48097F807C0E4
:104BF00003EB0C00EA46817890F801E001EB0E2E01
:104C00001FFA8EFE0EF1080121F00701ADEB010D38
:104C1000684600218EB2B64506D90CEB01061E444B
:104C2000F67846540131F5E7002100F80E101E78A1
:104C300006F00606022E0CF10301CCEB02021ED197
:104C40007144CEEB020213F801801944053A497809
:104C500001EB08280CF1050171441944D847E369B8
:104C600040221A70E3695E70E3691FFA88F84FEA20
:104C700028229A70E369042283F8038020E0042E3E
:104C800024D17144CEEB020213F801801944053A95
:104C9000497801EB08280CF1050171441944D84703
:104CA000E36950221A70E36902225A70E3691FFA1D
:104CB00088F84FEA28229A70E369324683F8038025
:104CC000E1692046FFF770FD656205E0033A714433
:104CD000CEEB02021944D847D5463BE0502908D113
:104CE0009978DB7803EB012189B22046FFF7E5FED6
:104CF00030E040290CD0602908D19978DB7803EBAB
:104D0000012189B22046FFF7F2FE23E070290DD180
:104D1000616BF9B1042A1DD110F0060F1AD19878F1
:104D2000DB7803EB002080B2884713E0902911D094
:104D3000C0290AD1D0221A70E36900225A70E169B1
:104D400002222046FFF730FD04E0D02904BF0023F3
:104D500084F82C3048460C37BD46BDE8F08F000083
:104D60002DE9F04F054685B000F56374994601239F
:104D700080F8A53605F5347620469346039105F272
:104D80000C4A0EF030FB30460EF000F805F5A8672F
:104D9000504610F01DF905F27468384610F018F905
:104DA000404606F000FA0022354920460DF0FFFF8C
:104DB0005A460399504610F0C1FC00285DDBB9F15A
:104DC000000F02D10F9B5BB90CE00E9B002BF9D0BA
:104DD0001A464946384610F0B1FC0028F2DA4CE099
:104DE000109B4BB900231A46194620460EF000FBD3
:104DF0008346002841D109E000230093109A0F99BF
:104E0000404607F05DFB0028ECD036E00322114657
:104E100020460EF01BF85A461A4920460DF0C1FFF5
:104E2000012120460DF0B6FF5A46174920460DF0E5
:104E3000BBFF5A46514620460DF0CEFFB9F1000F98
:104E400006D00F9B23B14246394620460DF0C1FFE4
:104E5000214630460EF038FA044668B90B4B0C4A2E
:104E600005F27C6130460DF0ABFF0094094B0A4A15
:104E7000294630460DF09EFF204605B0BDE8F08F74
:104E8000D9450D0075460D0041460D0043390E0011
:104E900035390E0011460D00DD450D0000B500F559
:104EA0003470ADF5017D0DF0D6FF034638B1064AEA
:104EB0004FF4007168460FF0B5FD002000E00120BE
:104EC0000DF5017D5DF804FB708C0E0070B5044695
:104ED00000F53476D4F8D432102B05D030460CF0DF
:104EE0006DF805460028F5D015F5D24FF2D015F52E
:104EF000D14FEFD004F20C4010F06FF804F5A86029
:104F000010F06BF804F2746006F051F9D4F8D43262
:104F1000102B09D194F8A63643B12046FFF7BEFF07
:104F200020B94FF0FF3070BD284670BD012384F8D2
:104F3000A436002070BD00002DE9F0438DB004467A
:104F4000894617461E46DDF85080FFF7C4FC05462B
:104F5000002840F0E780A16C002938D10346B4F85E
:104F60004C20A16B204611F095FF94F8A536002B3C
:104F700050D0A16B04F534700DF032FF2046FFF7DE
:104F8000A5FF002840F0CA8001232384684B59689C
:104F9000186806AA03C2197A53F8090F11709A8883
:104FA0009B798DF816309DF86430ADF81420042BF1
:104FB0000490E26931D1531D0498C2F80500BDF890
:104FC00014109DF8162099809A710C232EE006A8E3
:104FD00011F0FAFA2B46B4F84C2006A9204611F03D
:104FE000DBFF94F8A536ABB1A16CC8784B780A7892
:104FF00001908978009106A84E4910F06DFE06A92F
:1050000004F534700DF0ECFE2046FFF75FFFB0FAB8
:1050100080F040090028B7D180E006AB03CBC2F88E
:105020000500C2F809101B7853730E23B8F1000F66
:105030000AD09DF858209DF85410520142F0060203
:1050400042EAC102D2B200E002229DF8601009B922
:1050500002F0FD022FB116B942F0800201E042F0E9
:10506000C002E169CA54226DE169581C12120A5447
:105070009A1CE169206D88540333E2694946204651
:10508000FFF778FBB8F1000F0BD00346E269414609
:105090002046FFF76FFBE269179903462046FFF7AA
:1050A00069FB67B10346E26939462046FFF762FBB8
:1050B0002EB10346E26931462046FFF75BFB431FF2
:1050C0009BB2E26910212046FFF77BFB10F0E0FB6A
:1050D0004FF47A776062A0622046FFF736FD0646FD
:1050E00058B910F0D5FBA36AC01A236D7B439842D0
:1050F000F2D92046FFF797FB0EE00DF10F01204695
:10510000FFF7F6FB042809D1E369DF7837B910F01F
:10511000BFFB84F82C70A062354604E02046FFF700
:1051200082FB00E0002528460DB0BDE8F08300BFFB
:10513000608C0E00758C0E007FB50423059301234F
:105140000493002303930293019300931A46FFF7FD
:10515000F3FE07B05DF804FB10F0AABB2DE9F04F99
:10516000ADF6140D012300220DF5826004A940F86C
:10517000232041F8223013F0800118BF1B2183EA5D
:10518000430301324B40B2F5807FDBB2EED1664C77
:105190000123002213F0800144F8223018BF1B21A4
:1051A000013281EA43030A2ADBB2F3D15F4E604D3C
:1051B00063233370002385F86330012450F82430D2
:1051C00004AAC3F1FF0352F823E04FEAEE1141EACB
:1051D0004E01C9B2CA1142EA4102D2B2D31143EA26
:1051E0004203DBB28EF0630EDF118EEA010147EA63
:1051F00043074A405340FAB253403355EC5401340C
:10520000B4F5807FDAD1836B0193436A0293C76A56
:10521000436BDFF818E1DFF82CC1DFF82C81DFF8F1
:105220002C91DFF82CA1DFF808B10393002212F8CB
:105230000E0010F0800F14BF1B21002181EA4001F5
:105240000304C9B243EA00234B40414043EA0163EF
:105250004CF822304FEA336348F822304FEA336388
:1052600049F822304FEA33634AF822301BF8023003
:105270009400D3B10DF58261019851F823104518BF
:10528000FF2095FBF0F6C6EB0626AE1B04AD55F8E5
:105290002650029E314491FBF0F0C0EB0020091A29
:1052A00004A850F82110090201E01D4619464D409E
:1052B00083B10DF58261039851F823100144FF205A
:1052C00091FBF0F0C0EB0020081A04A951F820105F
:1052D000090400E019464D4073B10DF5826151F8A3
:1052E0002330FF213B4493FBF1F1C1EB0121591A1B
:1052F00004AB53F821301B065D400E4BE5500E4BBE
:105300004FEA3565E5500D4B4FEA3565E550013202
:105310000B4B4FEA3565B2F5807FE55087D10DF62E
:10532000140DBDE8F08F00BF74E3032074D2032096
:1053300074D1032074D7032074DB032074DF0320AF
:1053400074D3032074C1032074C5032074C90320DF
:1053500074CD03204FF48C72002113F0E2B918B120
:105360004FF48C7107F0CEB970470000C02AF8B531
:1053700004460F46154607D0B2F5807F06D0802A36
:1053800040F0E2800A2302E00C2300E00E23714E7D
:10539000236033681BB9FFF7E1FE0123336004F19A
:1053A000080363606D090020A84210D007EB80015C
:1053B0008A784E78C978120442EA062217F82060EB
:1053C000324342EA016243F820200130ECE72268D0
:1053D0000C2A31D00E2A66D00A2A40F0B8805E4FDF
:1053E0005E4E0025DC6857F825101A685140C4F35A
:1053F00007220135B05C220E4140B25C81EA0241D5
:10540000E2B20A2DB25C81EA0261C4F3074203F101
:105410001003B25C81EA022253F80C1C1A6082EA83
:10542000010253F8081C5A6082EA01029A6082EA7B
:105430000402DA60D6D18AE0474E484D002456F87F
:10544000241058691A684A40C0F307210134695C86
:105450004A40010E082C695C82EA0142C1B203F1A4
:105460001803695C82EA0162C0F30741695C82EA61
:10547000012253F8141C1A6082EA010253F8101C2E
:105480005A6082EA010253F80C1C9A6082EA010217
:1054900053F8081CDA6082EA01021A6182EA00020B
:1054A0005A61CCD153E02C4E2C48002556F82510DB
:1054B000DC691A685F685140C4F307220135825CD9
:1054C0005140220E072D825C81EA0241E2B203F1D3
:1054D0002003825C81EA0261C4F30742825C81EAB4
:1054E000022153F8182C196081EA070153F8147C43
:1054F000596081EA020187EA0107FAB29960DF6028
:10550000825C53F8101C81EA02014FEA1762825C48
:1055100081EA0261C7F30722C7F30747825C81EA89
:105520000221C25D81EA024253F80C1C1A6182EA30
:10553000010253F8081C5A6182EA01029A6182EA68
:105540000402DA61B2D102E06FF01F00F8BD002062
:10555000F8BD00BF70C1032074E3032074D20320A0
:105560002DE9F04FC9B0044602A80D461646FFF7D4
:10557000F1FE04F1080363603246294602A8FFF7F2
:10558000F5FE804600284CD10299039821600A015B
:1055900083188258A2605A68E2609A682261D868CB
:1055A000606104F11802DFF890C0214CDFF88C90A4
:1055B000DFF88CA00139103B00292ADD1D1FA2F164
:1055C000040E03F10C0B55F8040FC6B2AB45A75DF2
:1055D0004FEA1066A65D0196164E56F82770019E9A
:1055E0005CF8266087EA0607C0F30726C0F3074089
:1055F000A65D205C59F8266086EA07065AF82070F6
:1056000086EA07064EF8046FDDD110320139103BEF
:10561000D2E7196811605968516099689160DB6838
:10562000D36002A8FFF79BFE404649B0BDE8F08F6B
:1056300074D2032074D7032074D3032074DB0320B7
:1056400074DF03202DE9F74F46680C6833688D68D6
:10565000DFF874C3DFF874E3D84F84EA030B4C68B7
:1056600073686340B4686C40CD68F1684D40016870
:1056700049100139019106F11001019EDFF84893AC
:10568000DFF84883002E08465FFA8BF601F120010F
:105690004FEA156A40F3BE805EF82A005CF8268067
:1056A000C74E88EA000851F8200C88EA0008C3F3C6
:1056B00007205FFA83F957F820005CF8299088EA00
:1056C0000000C4F307485FFA84FA56F828805CF8B3
:1056D0002AA080EA08084FEA1B605EF8200089EAE9
:1056E000000951F81C0C89EA0000C4F3072957F897
:1056F000299080EA0900C5F3074956F8299080EA05
:105700000909180EC3F307435EF820008AEA000A6D
:1057100051F8180C8AEA0000C5F3072AEDB257F8D1
:105720002AA080EA0A00CBF3074A56F82AA080EAAA
:105730000A004FEA146A5CF825405EF82A5065407A
:1057400051F8144C6C40CBF307255FFA80FA57F8F8
:1057500025505CF82AA06C4056F8235065402B0E6B
:105760005FFA88F45EF823305CF824405C4051F81E
:10577000103C6340C9F3072457F824406340C0F34A
:10578000074456F8244083EA040B5FFA89F44FEA91
:1057900018635CF824405EF823305C4051F80C3C00
:1057A0006340C0F3072457F824406340C5F307441F
:1057B00056F8244063404FEA1964C9F307495EF87C
:1057C00024408AEA040A51F8084C8AEA0404C5F322
:1057D000072AEDB257F82AA084EA0A04C8F3074A58
:1057E000C8F3072856F82AA084EA0A044FEA106A88
:1057F0005CF825005EF82A50454051F8040C6840DA
:1058000057F82850684056F829504540019801380B
:10581000019032E758F82A1059F82670DFF89CC139
:10582000DFF89CE1C3F307264F4001685CF826606F
:1058300079407140C4F307465EF82670DEB24F40EF
:105840004FEA1B6159F8266058F8211086EA010AD0
:10585000C4F3072641685CF826608AEA01017140BA
:10586000C5F307465EF8266081EA060AE6B2190E1D
:1058700059F8266058F82110714086684E40C5F3EB
:105880000721240E5CF821104E40CBF30741EDB206
:105890005EF8211059F825504E4058F82410C4687D
:1058A00069404C40CBF30721C3F307435CF8211058
:1058B0005EF823304C405C40F9B2424B250E13F8A1
:1058C00001E001698EEA010113F805E0CAF307253A
:1058D00081EA0E6113F805E0C6F3074581EA0E215F
:1058E00013F805E081EA0E4E5FFA8AF15D5C4169CA
:1058F00069403D0E5D5D81EA0561C6F307255D5D8A
:1059000081EA0521C4F307455D5D81EA0545F1B2F1
:10591000360E13F801C081698CEA01014FEA1A6C56
:10592000CAF3074A13F80CC081EA0C61C4F3072CD0
:10593000E4B213F80CC01C5D81EA0C21C7F3074CDC
:10594000C7F3072713F80CC081EA0C4CC16984EA3D
:105950000100995D80EA0160D95D13F80A3082F890
:1059600000E080EA01204FEA1E2151704FEA1E41FB
:105970009170290A5171290C91714FEA1C2180EA1A
:10598000034351724FEA1C419172190A4FEA1E6E8D
:10599000157182F808C02D0E4FEA1C6C13735173F9
:1059A0000020190C1B0E82F803E0D57182F80BC0A1
:1059B0009173D37303B0BDE8F08F00BF74C50320AB
:1059C00074C9032074D2032074C1032074CD032052
:1059D0002DE9F74F45680C682B684E680068DFF8C2
:1059E00074C3DFF874E3D84F5C406B6886EA030B3E
:1059F0008E68AB6840107340CE68E968013801904A
:105A0000714005F11000019EDFF84893DFF84883EC
:105A1000002E0546E6B200F120004FEA1B6A40F373
:105A2000C0805EF82A505CF82680C84E88EA0508D7
:105A300050F8205C88EA0508C1F307255FFA8BF966
:105A400057F825505CF8299088EA0505C3F3074804
:105A50005FFA83FA56F828805CF82AA085EA0808DD
:105A60001D0EC3F307235EF8255057F8233089EA4B
:105A7000050950F81C5C89EA0505C4F3072957F8A5
:105A8000299085EA0905C1F3074956F8299085EA66
:105A900009090D0EC9B25EF825505CF821108AEA9A
:105AA000050A50F8185C8AEA0505CBF3072A57F86F
:105AB0002AA085EA0A05C4F3074A240E56F82AA04C
:105AC0005EF824404C4050F8141C61405940CBF320
:105AD00007435FFA88F456F823305CF824405940B5
:105AE0004FEA196385EA0A055EF823305C4050F8F6
:105AF000103C6340C1F307245FFA89FA57F8244049
:105B00005CF82AA06340C5F3074456F824405C4083
:105B10002B0E5EF823308AEA030A50F80C3C8AEA1E
:105B20000303C8F3072A57F82AA083EA0A03C1F33C
:105B3000074A56F82AA083EA0A0B5FFA85FA0B0E89
:105B40005CF82AA05EF823308AEA030A50F8083C81
:105B50008AEA0303C9F3072AC9B257F82AA05CF8F6
:105B6000211083EA0A03C8F3074A4FEA1868C5F30D
:105B700007255EF8288057F8255056F82AA081EAB4
:105B8000080850F8041CC9F3074988EA0101694074
:105B900056F829506940019D013D83EA0A030195A9
:105BA00031E758F82A0059F82670DFF89CC1DFF871
:105BB0009CE1C1F30726474028685CF826607840DE
:105BC0007040C3F307465EF826705FFA8BF64740D5
:105BD000180E59F8266058F8200086EA000AC4F327
:105BE000072668685CF826608AEA00007040C1F306
:105BF00007465EF8266080EA060ADEB2080E59F80B
:105C0000266058F820007040AE684640CBF307206D
:105C1000C9B25CF820004640C4F30740240E5EF889
:105C20002000464059F8210058F82410C3F30723F8
:105C30004840E9685CF8233041405940CBF30743C2
:105C4000F8B25EF823305940414B4FEA1A6413F81A
:105C500000E028698EEA000013F804E0C1F307248D
:105C600080EA0E6013F804E0C6F3074480EA0E20D1
:105C700013F804E080EA0E4E5FFA8AF01C5C686953
:105C80006040340E1C5D80EA0460C7F307241C5D8D
:105C900080EA0420C1F307441C5D80EA0444F0B2AA
:105CA000C6F3072613F800C0A8698CEA00004FEA83
:105CB000116CC9B213F80CC080EA0C60CAF3072C4F
:105CC000CAF3074A13F80CC080EA0C20C7F3074C4C
:105CD0003F0E13F80CC080EA0C4C585CE969414057
:105CE000D85D81EA0061985D13F80A3082F800E01F
:105CF00081EA002181EA03434FEA1E2151704FEAF5
:105D00001E419170210A5171210C91714FEA1C21A1
:105D100051724FEA1C419172190A4FEA1E6E1471BA
:105D200082F808C0240E4FEA1C6C137351730020D4
:105D3000190C1B0E82F803E0D47182F80BC091732A
:105D4000D37303B0BDE8F08F74DB032074DF03204E
:105D500074D1032074D7032074D3032010B4012915
:105D6000144621461A4603D15DF8044BFFF76ABC7E
:105D70005DF8044BFFF72CBE30B50368CD1A002D3B
:105D800002DC6FF05F0030BD1C7814F0800F04D18E
:105D90005C1C04601B78136036E004F07F04013C57
:105DA000032C38D8DFE804F002091320012DE8D0D5
:105DB0005B7813600368023325E0022DE1DD5C7837
:105DC0009B7843EA04231360036803331BE0032D2D
:105DD000D7DD9C785D78DB78240244EA05441C43D7
:105DE0001460036804330EE0042DCADD9C785D78EE
:105DF000240444EA05651C79DB782C4344EA032338
:105E000013600368053303600368C91A13688B4283
:105E1000B7D8002030BD6FF0630030BD70B40468A7
:105E20000E1B002E07DD26789E4207D10134046048
:105E300070BCFFF7A1BF6FF05F0001E06FF0610081
:105E400070BC704737B50123154601AA0446FFF719
:105E5000E5FF70B9019B012B09D123681B78003342
:105E600018BF01232B6023680133236001E06FF02A
:105E7000630003B030BD37B50223154601AA0446BE
:105E8000FFF7CCFFC8B9019B013B032B13D8236854
:105E900093F90030002B0EDB2860019B5A1E019203
:105EA0005BB123682A681B7843EA02232B602368CE
:105EB00001332360F1E76FF0630003B030BD37B505
:105EC0000223154601AA0446FFF7A8FF40B9019A2C
:105ED0002168284600F090FC2268019B134423604F
:105EE00003B030BD70B5032304460E461546FFF7D8
:105EF00095FFD8B91368A3B1013B136023681B78E1
:105F00001371072B10D82368013323609360226834
:105F10002B6813449E4223600CBF00206FF0650085
:105F200070BD6FF05F0070BD6FF0630070BD38B57D
:105F3000032304461546FFF771FF58B913685A1E2C
:105F4000012B2A6004D923685A1C22601B780BB1EC
:105F50006FF0670038BD2DE9F7431546984601AA52
:105F6000302304460F46FFF759FF064678BB2268E8
:105F7000019B13449F421DD06FF0650627E0236804
:105F80009F421AD91B782B604A4643463946204621
:105F9000FFF744FFB8B92368AB6022686B6813440D
:105FA0009F422360EBD91021012012F06FFBE860C3
:105FB00058B1054605F10409E1E70023EB602368C9
:105FC0009F4204D0D8E7064601E06FF069063046EC
:105FD00003B0BDE8F0832DE9F34190461F4601AAC6
:105FE000302304460E46FFF719FF054600283BD133
:105FF0002368F61A002E35DD42461B7842F8043B32
:10600000019B26681E44314606232046FFF706FF03
:10601000054648BB2368C8F808302268D8F8043021
:10602000D1188E42216004D10C21384606F06AFB5B
:106030001AE0D35C3A46314642F8043B2368013308
:1060400023602046FFF798FE054668B92368BB60C9
:1060500022687B6813449E4223600CBF05466FF0A4
:10606000650501E06FF05F05284602B0BDE8F081EC
:106070001FB5002301930293039301ABFFF7ABFF1E
:1060800060B9019B052B00D033B9029B002B0CBFDC
:1060900000206FF0670001E06FF0670005B05DF869
:1060A00004FB03687F2AA3EB010107D8002969DDFF
:1060B000591E016003F8012C01207047FF2A0DD8FA
:1060C00001295FDD591E016003F8012C03685A1E87
:1060D0000260812203F8012C02207047B2F5803F54
:1060E00013D202294EDD591E016003F8012C03680A
:1060F000120A591E016003F8012C03685A1E02603F
:10610000822203F8012C03207047B2F1807F19D25C
:10611000032937DD591E016003F8012C0368591E5D
:106120000160110A03F8011C0368120C591E01607A
:1061300003F8012C03685A1E0260832203F8012C25
:106140000420704704291DDD591E016003F8012C4D
:106150000368591E0160110A03F8011C0368591EE7
:106160000160110C03F8011C0368120E591E016036
:1061700003F8012C03685A1E0260842203F8012CE4
:10618000052070476FF06B0070470368591A0029AB
:10619000C1BF03F1FF310160012003F8012CD8BF1A
:1061A0006FF06B007047F8B5054610460E4617466F
:1061B00000F01CFB2968B142044602D26FF06B006C
:1061C000F8BD8B1B9842F9D8091A02462960384657
:1061D00000F049FBF8B93B68012B0CD12B6893F90F
:1061E0000020002A07DA9A1B002AE7DD5A1E2A60DF
:1061F000013403F8010C224631462846FFF751FFCF
:10620000002808DB0444022231462846FFF7BDFF80
:106210000028A8BF0019F8BD2DE9F043DDF81CE007
:10622000DFF81C8100273C463D4675452DD24FF0D6
:10623000000C5E5D202E04D10135AE450CF1010C41
:10624000F7D8AE4521D0C5EB0E06012E06D95E5D0E
:106250000D2E03D15E1976780A2E14D05E5D0A2EBB
:1062600011D0BCF1000F66D13D2E02D10137022FB3
:1062700061D816F0800F5ED118F806607F2E5AD0D4
:106280003F2E56D901340135CFE71CB914602046A2
:10629000BDE8F08304F0070E0626E40806FB0EFEB8
:1062A00066430EF1070EF61B06EBDE0460B18C426E
:1062B0000AD8002603EB050E014603253446DFF815
:1062C00080C0DFF880800FE014606FF02900BDE827
:1062D000F08313F8019BA9F10A07FFB2162F06D825
:1062E00028FA07F7FF0702D57345F2D11CE01CF826
:1062F00009700134402F08BF013D07F03F07042C0F
:1063000047EA8616F0D16DB1340C012D0C7001D125
:10631000013107E0022D4FEA16244C7016BF8E7033
:10632000023103310024DFE7081A10600020BDE8C5
:10633000F083002FA6D06FF02B00BDE8F08300BFE4
:10634000818C0E00090040000023F0B516461C4663
:10635000844216D0D6F800E0C3EB0E05356051F844
:106360002470BD422CBF4FF0000C4FF0010CED1B10
:10637000734594BF63460CF1010346F8045B013496
:10638000E6E702EB840243B11168C81A8B4242F877
:10639000040B94BF00230123F5E7F0BDF0B50546DB
:1063A000074600240F2F73D90E46103F56F8040BF2
:1063B0001168E3FB601442F8041B56F8040B1168E3
:1063C000E3FB601442F8041B56F8040B1168E3FB6E
:1063D000601442F8041B56F8040B1168E3FB6014C8
:1063E00042F8041B56F8040B1168E3FB601442F8F2
:1063F000041B56F8040B1168E3FB601442F8041BFD
:1064000056F8040B1168E3FB601442F8041B56F8BD
:10641000040B1168E3FB601442F8041B56F8040BEC
:106420001168E3FB601442F8041B56F8040B116872
:10643000E3FB601442F8041B56F8040B1168E3FBFD
:10644000601442F8041B56F8040B1168E3FB601457
:1064500042F8041B56F8040B1168E3FB601442F881
:10646000041B56F8040B1168E3FB601442F8041B8C
:1064700056F8040B1168E3FB601442F8041B56F84D
:10648000040B1168E3FB601442F8041B314689E7F2
:1064900005F00F05072D39D90E4656F8040B116883
:1064A000E3FB601442F8041B56F8040B1168E3FB8D
:1064B000601442F8041B56F8040B1168E3FB6014E7
:1064C00042F8041B56F8040B1168E3FB601442F811
:1064D000041B56F8040B1168E3FB601442F8041B1C
:1064E00056F8040B1168E3FB601442F8041B56F8DD
:1064F000040B1168E3FB601442F8041B56F8040B0C
:106500001168E3FB601442F8041B314605F00705EF
:1065100055B10E46013D56F8040B1168E3FB6014BB
:1065200042F8041B3146F3E7136823449C4242F8C7
:10653000043B8CBF01240024F6D8F0BD01F180415A
:10654000013900EB8101884208D803680A681BBA48
:1065500012BA40F8042B41F80439F4E770470123DC
:106560000360002343608360704710B5044668B140
:10657000806830B16168890006F0C4F8A0680FF047
:106580009BFB0123236000236360A36010BD42F2E4
:10659000107399422DE9F04104460E4603D96FF07D
:1065A0000F00BDE8F0814568A94217D904213046A3
:1065B00012F06CF880460028F1D0A7685FB1AD00FA
:1065C0002A46394612F087F83846294606F09AF8E6
:1065D000A0680FF071FB6660C4F808800020BDE879
:1065E000F08142F2107399422DE9F04106460C46C3
:1065F00003D96FF00F00BDE8F0814368994203D3DF
:10660000BDE8F041FFF7C3BF591E03F18043013BD2
:106610009D002B4629B1B268D258043B0AB9013912
:10662000F8E701318C4238BF0C462046042112F0B5
:106630002DF880460028DCD0B76857B1A200394653
:1066400012F049F83846291D06F05CF8B0680FF0E2
:1066500033FB7460C6F808800020BDE8F0818842F2
:10666000F8B506460F4624D08D6815B9FFF77DFFB3
:106670001FE04C68013C1CB155F82430002BF9D0C8
:1066800072683B6833600134944205D92146304634
:10669000FFF77DFF40B1F8BDB068121B92000021EA
:1066A00000EB840012F03DF8A200B968B06812F067
:1066B00012F80020F8BDF8B50D46496804461646A4
:1066C000FFF765FF58BB734246EA03022968236857
:1066D000C2F3C012C2F10106514303FB061323604B
:1066E000034669688B424FEA83010DD2A968D4F84A
:1066F00008E051F823705EF82310714307FB021184
:106700004EF823100133ECE70A4661688B4206D24B
:10671000A568A9587143A95001330432F5E7F8BDC3
:1067200070B50E4601210446FFF731FF054688B9D2
:10673000626801469200A06811F0F3FFA36886EA40
:10674000E672002EA2EBE6721A60B4BF4FF0FF3380
:1067500001232360284670BD4368B1EB431F3FBF50
:1067600083684A0901F01F0053F822303ABF23FA28
:1067700000F000F001000020704770B5002344686D
:106780001A46A2420ED0816851F82250002125FA03
:1067900001F6F60708D40131202903F10103F6D1EF
:1067A0000132EEE7002070BD184670BD10B5436899
:1067B000D3B103F18042013A591E9200836821B19E
:1067C0009C58043A0CB90139F8E753F821004FF00E
:1067D00000420023104204D10133202B4FEA520221
:1067E000F8D1C3EB41132033184610BD08B5FFF7AD
:1067F000DDFF0730C00808BD2DE9F04112F00304A9
:1068000018BF0124436804EB92049C420746884663
:10681000154606D100213846FFF782FF064678B1BB
:106820001EE0FFF7A2FE01233B6000237B60BB60FC
:1068300021463846FFF7ABFE06460028EAD00FE0B7
:10684000B8F1000F0CD0BB68C5EB84002A46414666
:10685000184411F040FF1CB12146B868FFF76EFEE6
:106860003046BDE8F081F8B5054608466C68A400DE
:10687000944201D3134614E0121B8E18002111F02C
:1068800050FF304622460EE04FEA930EAF6803F009
:106890000301CE0057F82E10F14011F0FF0F12D176
:1068A00001339C42F0D1104400239A420ED09F083D
:1068B000AE6803F00301CC0056F82710E14000F861
:1068C000011D0133F1E76FF00700F8BD0020F8BDAE
:1068D000F8B504460D464E0901F01F07FFF766FFA5
:1068E00063682844B0EB431F09D846B3636803F1DB
:1068F0008042013A6FF00301920071430BE010F007
:106900001F0118BF012101EB50112046FFF73FFE88
:106910000028EAD0F8BD9E4206D2A0688518013B47
:106920006D588550043AF6E703F18042013A92002F
:10693000002023B1A168013B8850043AF9E70FB960
:106940000020F8BDB3000022C7F1200E61688E421E
:10695000F6D2A068C15801FA07F5C550A068C5581D
:106960002A43C2500136043321FA0EF2EEE7F0B5A5
:1069700043684A099A4201F01F0101D805D159B173
:106980000021BDE8F040FFF7CBBED2B10023446840
:10699000A41AA34205D301E05AB30B469A0000257E
:1069A00007E084689D1854F8255044F823500133BB
:1069B000EDE74468A34204D284680133A550043251
:1069C000F7E7B1B1446804F18043013B9B0000222A
:1069D000C1F1200E6CB18668F55825FA01F7F75021
:1069E0008668F7583A43F250013C043B05FA0EF230
:1069F000F0E70020F0BD70B5436803F18042013A32
:106A000092002BB18468A458043A0CB9013BF8E712
:106A10004C6804F18042013A9200C4B18D68AE58CE
:106A2000043A0EB9013CF8E79C420BD313D90BE0B2
:106A3000A2F1040208D3013B93B181688C58A95894
:106A40008C42F5D9012070BD4FF0FF3070BD181C8D
:106A500018BF012070BD03F18042013A9200EBE7BC
:106A6000184670BD2DE9F04F85B0164603930E9B76
:106A70005A68736801339A4281468B4651D30E9B04
:106A8000986800284DD09200002111F04AFE0E9B1C
:106A9000D6F804A09B680093DBF80430009D5345B2
:106AA00028BF53460AF101070293BF000024544552
:106AB000D9F808001BD0DBF8081050F824802A68A9
:106AC0000B68029803FB0823039A534301932A4659
:106AD0004346FFF763FC019BB1682A465046FFF727
:106AE0005DFC45F8048B0023EB510134DFE7009B8C
:106AF000391F0B443A46194611F0EDFD3146484620
:106B0000FFF779FF0028B3BF0E9BD9F80820B168C2
:106B10009A68B8BFD9F808102046FFF715FC002086
:106B200001E06FF0030005B0BDE8F08F70B5436879
:106B300003F18042013A92002BB18468A458043AD0
:106B40000CB9013BF8E74C6804F18042013A92002D
:106B500064B38D68AE58043A0EB9013CF8E79C4224
:106B600001D2026825E0096801D94A4221E00268A1
:106B7000002A01DD002914DB002901DD002A12DBD7
:106B800003F180410139890093B1846866586C58DB
:106B9000A6420ED8A1F1040101D2524209E0013B04
:106BA000F2E7012205E04FF0FF3202E0002BD8D1DE
:106BB0001A46104670BD1FB581EAE173A3EBE1737D
:106BC00000290093B4BF4FF0FF330123019301A9C3
:106BD00001230293CDF80CD0FFF7A8FF05B05DF8B4
:106BE00004FB90422DE9F0410646154606D0884246
:106BF00005D0FFF734FD074608B149E00D460123F3
:106C000033606C6804F18043013B9B002CB1AA689F
:106C1000D258043B0AB9013CF8E721463046FFF759
:106C2000B6FC0746002833D1B368D5F808C018462B
:106C30003D463946A1420FD002685CF821E0AD180C
:106C400075442CBF0122002240F8045B0131AE459F
:106C500094BF1546551CEDE74FEA84084344BDB187
:106C60007268944204F1010406D321463046FFF7CE
:106C70008EFC60B9B36843441A682A44954243F8CD
:106C8000042B94BF0025012508F10408E7E7074617
:106C90003846BDE8F081F0B50F4685B0064611468E
:106CA00038461546FFF7A7FE002830DB0123019385
:106CB000B5424FF000030293039306D1294601A881
:106CC000FFF7CDFC0446E8B901ADB74207D1012377
:106CD0003360686800F18043013B9B000BE039465C
:106CE0003046FFF7BCFC044660B9F0E7AA68D2580A
:106CF000043B12B901380028F8D1B268A968FFF73F
:106D000023FB002401A8FFF730FC204601E06FF0D0
:106D1000090005B0F0BDF8B50C681368634305467B
:106D20000F46164613D511463846FFF764FE002875
:106D300005DB324639462846FFF7ADFF09E03A4603
:106D400031462846FFF7A7FF28B9644202E0FFF763
:106D500048FF00B92C60F8BDF8B50C6813686343B0
:106D6000002B05460F46164613DD11463846FFF741
:106D700042FE002805DB324639462846FFF78BFFE6
:106D800009E03A4631462846FFF785FF28B96442B4
:106D900002E0FFF726FF00B92C60F8BD1FB582EABC
:106DA000E273A3EBE273002A0093B4BF4FF0FF330A
:106DB0000123019301AA01230293CDF80CD0FFF720
:106DC000AAFF05B05DF804FB1FB582EAE273A3EBEE
:106DD000E273002A0093B4BF4FF0FF330123019305
:106DE00001AA01230293CDF80CD0FFF7B5FF05B03F
:106DF0005DF804FB2DE9F04786B000231546884274
:106E00004FF0010281460E468DE80C00029303927A
:106E10000493059306D16846FFF721FC0446002839
:106E20004DD16E46A94507D1494603A8FFF717FC87
:106E30000446002843D103ADD6F804A00AF18043EC
:106E4000013B9B00BAF1000F06D0B268D258043B58
:106E500012B90AF1FF3AF5E76F6807F18043013B89
:106E60009B002FB1AA68D258043B0AB9013FF8E74A
:106E70000AEB07014846FFF78AFB0446F8B90146CA
:106E80004846FFF74DFC0446C8B907F1804808F1B1
:106E9000FF384FEA88086FB1AB68D9F8082053F87B
:106EA0000830B16842445046FFF778FA013FA8F134
:106EB0000408F0E732682B685343C9F8003003A890
:106EC000FFF753FB6846FFF750FB204606B0BDE8CE
:106ED000F0871FB50123009201AA01930293CDF818
:106EE0000CD0FFF787FF05B05DF804FB2DE9F04FEC
:106EF0009BB00F4601900021184690460493FFF77F
:106F00005AFE002800F0AD810024012504990B955C
:106F100040460C940D940E950F9410941195129474
:106F20001394149515941694179518941994FFF7C3
:106F300062FDA04216DA019B0BB94FB910E0214661
:106F40000198FFF7EDFB0446002840F07981F4E753
:106F500041463846FFF783FB0446002840F0708125
:106F6000002080E141460BA8FFF779FB044600288A
:106F700040F066810EAE04993046FFF770FB044680
:106F8000002840F05D81D8F804100E95023111A858
:106F90000B95FFF7FCFA0446002840F051810146AA
:106FA00011A8FFF7BDFB0446002840F049810221EB
:106FB00014A8FFF7ECFA0446002840F041810321B1
:106FC00017A8FFF7E4FA0446002840F0398130465C
:106FD000FFF7ECFB00F01F001F2813D0C0F11F03C8
:106FE00019460BA80293FFF773FC0446002840F0F3
:106FF000278102993046FFF76BFC0446002840F0D9
:107000001F8100E002940C9DDDF83CA005F1FF39E2
:107010000AF1FF33C3EB090B00934FEA4B131946F8
:1070200030460393FFF754FC0446002840F00881E3
:107030004FEA8B0B31460BA8FFF778FD00280EDBDB
:10704000139951F80B20013241F80B200BA932465D
:107050000846FFF781FE04460028EBD0F0E00399D4
:107060003046FFF784FC0446002840F0E980009B8E
:107070009B000593043B05F18046089305F10063EE
:10708000013B013ECAEB060605F18045CAEB030A47
:107090004FEA4A13023DB6000393AD00009B9945A9
:1070A00040F2A8802B1D05980D99109A099312584B
:1070B000CB581398934203D34FF0FF3383511BE017
:1070C00000EB060A48599AB1079300230693DDE9BD
:1070D00006BC4BEA000B5846614611F023F9002329
:1070E0004FF0FF328B4208BF824203D2104601E0CC
:1070F0004FF0FF30CAF80000139A935901339351AF
:10710000A5F1040A139A9359013B9351002114A845
:10711000FFF706FB002840F09080009B169A1BB1F9
:10712000109B08995B5800E0009B1360109B059A28
:107130009A58169B5A60139B14A908469A59FFF750
:10714000C8FE014600287AD117A8FFF7E9FA0028FF
:1071500073D1B9F1010F18BF0D9A199B18BF52F8DE
:107160000A0018600D9B5A59199B5A600D9B099A89
:107170009A58199B17A99A6014A8FFF7D7FC002802
:10718000C0DC139B0EA99A5914A8FFF7A2FE002891
:1071900053D1039914A8FFF79BFB00284DD10BA9ED
:1071A000084614AAFFF7D8FD0146002847D10BA8CE
:1071B000FFF701FD002815DA0EA914A8FFF74FFA12
:1071C00000283AD1039914A8FFF782FB002834D194
:1071D0000BA914AA0846FFF79EFD70BB139A93599A
:1071E000013B9351039B203B09F1FF39043E03937C
:1071F000043D53E7019B5BB111A91846FFF72FFA35
:10720000D8B9049BD8F800201B685343019A136037
:10721000B7B102990BA8FFF7AAFB70B9D8F80030F4
:107220000B930BA93846FFF71AFA014638B93846CE
:10723000FFF7C1FC20B901233B60044600E00C4687
:107240000BA8FFF792F90EA8FFF78FF911A8FFF727
:107250008CF914A8FFF789F917A8FFF786F92046DB
:1072600001E06FF00B001BB0BDE8F08F70B5044675
:107270000E46104600211546FFF79DFC002822DB34
:107280002B46324621460020FFF730FEF8B9002198
:107290002046FFF790FC002807DA2A4621462046C0
:1072A000FFF739FD0028F2D070BD29462046FFF7D0
:1072B0003DFC00280ADB2A4621462046FFF74CFD0C
:1072C0000028F2D070BD6FF0090070BD002070BDC5
:1072D0002DE9F04FADF2546D06460F4618460021D9
:1072E00002921D46FFF767FC002805DDAB68D3F866
:1072F000008018F0010F02D16FF0030003E20021BB
:107300000298FFF758FC0028F6DB08F1020464003D
:1073100004F008044444032104FB08F3C3F102030E
:10732000013903FB04F4F7D101234FF4C06214A820
:10733000089309910A910B930C910D910E930F9163
:10734000109111F0EEF90298FFF730FAB0F5287FAE
:107350000AD2EF280BD84F280CD8182834BF4FF08A
:10736000010B4FF0030B07E04FF0060B04E04FF06A
:10737000050B01E04FF0040B6B6803F10108414677
:107380003046FFF704F90346002840F09481414657
:1073900017A8FFF7FCF80346002840F08C814FEA5D
:1073A00048010BA8FFF7F3F80346002840F083815B
:1073B0003B68049301330AD139460EA8FFF74FF911
:1073C0000346002840F0778101230E930EAFDDF8CD
:1073D00078360BB19B682BBB012108A8FFF7A0F9F9
:1073E0000346002840F06781696808A88901FFF713
:1073F0006FFA0346002840F05E8108A92A46084635
:10740000FFF734FF0346002840F05581DDF8783659
:1074100083B108AB03CBDDF87826106018685160A3
:10742000906007E0DDF878261068516808AB03C368
:107430009068186029463846FFF778FB002818DB6B
:107440002A46394617A8FFF711FF0346002840F0E7
:10745000328164420DF12C092346CDF800902A4672
:1074600008A917A8FFF7FEFA0346002840F0238179
:1074700004E0394617A8FFF7F2F8E6E708A9304616
:10748000FFF7EDF80346002840F0158107AB012710
:107490001393CDF8009023462A4611A9304607974A
:1074A00011971297FFF7DEFA0346002840F0038198
:1074B000BB455BD00BF1FF3303939F40696814AB6E
:1074C0004FF00C0808FB073801314046FFF75FF822
:1074D0000346002840F0EF8017A94046FFF7BFF8A9
:1074E0000346002840F0E78082462346CDF800900E
:1074F0002A4641464046FFF7B5FA0346002840F0C9
:10750000DA80039B0AF1010A5345EED801374FF0A8
:1075100001094FF00C0814AB09FA0BF908FB073806
:107520000DF12C0A4F4521D2696840460131FFF721
:107530002EF80346002840F0BE80A8F10C0140461A
:10754000FFF78DF80346002840F0B58023464046FB
:10755000CDF800A02A4617A9FFF784FA08F10C0815
:107560000346002840F0A7800137DBE7029B002795
:107570005B680393B946BA46B846BAF1000F0ED11C
:10758000039B3BB9012303FA0BF30593039F0DF112
:107590002C0A5EE0039B013B03934FF0200A029B01
:1075A000039A9B6853F822300AF1FF3A23FA0AF350
:1075B00013F001030FD1002FDFD0012F0BD10BAB44
:1075C00000932A46234631463046FFF74BFA0346DE
:1075D0000028D2D06FE009F10109C9EB0B029340FA
:1075E000CB4548EA030801D00227C6E700270BABCA
:1075F00000932A46234631463046FFF733FA0346C6
:10760000002858D10137BB45F1D10BAB14A80C2190
:10761000009301FB080123462A463046FFF722FA71
:107620000346002847D1012780468146A5E7234627
:10763000CDF800A02A4631463046FFF713FA03463C
:10764000002838D1059B4FEA480818EA030F03D1F8
:1076500001374F45EBD10BE02346CDF800A02A4679
:1076600017A93046FFF7FEF903460028F0D022E0C4
:10767000012307931193129307AB1393CDF800A046
:1076800023462A4611A93046FFF7ECF9034690B984
:10769000049A01320FD1029A526862B1029A92683A
:1076A0001268D20707D5049B33603246294630461C
:1076B000FFF731FB034601220BF1FF3402FA04F419
:1076C00002FA0BF50C26AC42029307D214AB06FB70
:1076D0000430FEF74AFF0134029BF4E717A8FEF7D7
:1076E00044FF0BA8FEF741FF0EA8FEF73EFFDDF8B2
:1076F0007826029B0AB1926822B908A80293FEF785
:1077000034FF029B18460DF2546DBDE8F08FF0B5C2
:107710008BB000230126074604A815460196029364
:107720000393049605930693079608930993FEF72F
:1077300096FF0446002863D1294607A8FEF78FFF6D
:10774000044600285CD104A8FFF717F8054607A8EF
:10775000FFF713F8854228BF0546294604A8FFF71E
:1077600006F9044600284BD1294607A8FFF7FFF881
:107770000446002844D107960496002104A8FFF788
:107780001AFA002831D004A8FEF7F7FF014604A832
:10779000FFF7EDF80446002832D107A8FEF7EDFF09
:1077A000014607A8FFF7E3F8044648BB07A904A869
:1077B000FFF7BCF9002809DB04A907AA0846FFF770
:1077C0006AFA0446E0B9012104A808E007A904AA5E
:1077D0000846FFF760FA044690B9012107A8FFF7B1
:1077E000C6F804460028C8D00AE0294607A8FFF7D3
:1077F0006FF8044620B907A93846FEF730FF044663
:1078000001A8FEF7B2FE04A8FEF7AFFE07A8FEF738
:10781000ACFE20460BB0F0BD2DE9F84311F0030497
:1078200018BF01249946436804EB91049C42064624
:107830000F46904606D100213046FEF771FF0546FF
:10784000D8B90EE0FEF791FE012333600023736088
:10785000B36021463046FEF79AFE05460028EAD07E
:107860000BE0B168C7EB84033A4619444846C04769
:107870001CB12146B068FEF761FE2846BDE8F883DA
:107880002DE9F04180469CB00F4610460121164676
:10789000FFF791F9002840F34C810023012532467F
:1078A000394601A804950593069307950893099313
:1078B0000A950B930C930D950E930F9301950293DC
:1078C0000393109511931293139514931593169592
:1078D0001793189319951A931B93FFF718FF0446F3
:1078E000002840F00981294601A8FFF764F9002823
:1078F00040F000813246394604A8FFF7B7FC044641
:10790000002840F0F98004A907A8FEF7A8FE044665
:10791000002840F0F180314610A8FEF7A0FE044692
:10792000002840F0E980314613A8FEF798FE04468F
:10793000002840F0E18029460AA8FEF7F1FE04463F
:10794000002840F0D98001460DA8FEF7E9FE044664
:10795000002840F0D180014616A8FEF7E1FE04465B
:10796000002840F0C980294619A8FEF7D9FE044630
:10797000002840F0C180099B1B68DD074CD4012121
:1079800007A8FEF7F4FF0446002840F0B5800C9BE2
:107990001B68DC0710D40F9B1B68D8070CD401218F
:1079A0000AA8FEF7E4FF0446002840F0A580012164
:1079B0000DA8FEF7DCFFDAE70AA910AA0846FFF7D0
:1079C000AAF90446002840F097800DA904AA0846A9
:1079D000FFF7C2F904460028E1D08DE0012113A889
:1079E000FEF7C5FF0446002840F08680189B1B6800
:1079F000DA0716D41B9B1B68DB0712D4012116A8DB
:107A0000FEF7B5FF0446002876D1012119A8FEF73C
:107A1000AEFF044600286FD1159B1B68D90711D40F
:107A2000DCE716A910AA0846FFF775F904460028F6
:107A300062D119A904AA0846FFF78EF90446002866
:107A4000DCD059E013A907A8FFF770F800281FDB66
:107A500007A913AA0846FFF77FF9044600284BD16F
:107A60000AA916AA0846FFF777F90446002843D169
:107A700019AA0DA90846FFF76FF9044600283BD163
:107A8000002107A8FFF797F800287FF474AF17E0EC
:107A900013A907AA0846FFF75FF9044660BB16A9B9
:107AA0000AAA0846FFF758F9044628BB0DAA19A9E7
:107AB000E0E716A932460846FFF72DF90446D8B983
:107AC000002116A8FFF777F80028F2DB06E016A9D8
:107AD00032460846FFF740F9044668B9314616A811
:107AE000FFF724F80028F2DA16A94046FEF7B7FDA2
:107AF000044601E06FF00D0404A8FEF736FD07A868
:107B0000FEF733FD0AA8FEF730FD0DA8FEF72DFDA8
:107B100001A8FEF72AFD10A8FEF727FD13A8FEF71F
:107B200024FD16A8FEF721FD19A8FEF71EFD20462C
:107B300001E06FF003001CB0BDE8F081054B53F885
:107B4000042C22B1083313F8101C8142F7D11046DF
:107B5000704700BF5C8D0E0030B5084C63685BB1A8
:107B60009D692D78854205D15D688D4202D15D7891
:107B7000954201D00834F1E7184630BD548D0E000F
:107B80003822002110F0CDBD10B5044658B1406B2D
:107B900018B123689B695B69984720463821BDE886
:107BA000104004F0AFBD10BD38B505460C4659B1C4
:107BB0003822002110F0B5FDA3691B69984768635E
:107BC00020B12C60002038BD014838BD014838BDC7
:107BD000009FFFFF809EFFFF30B40468B4B12569A9
:107BE000AD0702D46568954210D1012B4260037243
:107BF00003D06578033D022D02D8A3699B6802E09B
:107C000023B9A369DB68406B30BC1847014830BC1E
:107C1000704700BF009FFFFF38B503680546A3B15A
:107C2000102A10D81869C00703D4DC68A24201D218
:107C30000BE014462CB1224605F1200010F04BFD5C
:107C40002C63002038BD024838BD024838BD00BF53
:107C5000809FFFFF009FFFFF03681BB10023C361EC
:107C60001846704700487047009FFFFF70B41446E5
:107C70000268039E0AB91B4831E0002232600568A1
:107C80000DB16A6900E02A466D78012D0CD194424D
:107C900020D134600268926954680A46A44690F97B
:107CA0000810406B70BC6047062D06D134600A4650
:107CB000406B214670BC02F0AABD6AB199420DD159
:107CC000C369002BD7D1B4FBF2F102FB1144002CA5
:107CD000D1D103E0044802E0044800E0044870BC4D
:107CE000704700BF009FFFFF809DFFFF809CFFFF4C
:107CF000809FFFFF10B501680346A9B10020106006
:107D000019684A78D41E042C11D9092A0FD0097891
:107D1000483901290BD9012A08D1DB698342A0F532
:107D2000C54008BF002010BD014810BD014810BD6E
:107D3000009FFFFF809FFFFFF0B585B005461F46FF
:107D40000B9E0C9CFFF768FFB8B92B68A3B1E861E4
:107D5000009433460A9A39462846FFF787FF60B9F0
:107D6000216803AA31442846FFF7C4FF28B92268D6
:107D7000039B1344236000E0014805B0F0BD00BF41
:107D8000009FFFFF2DE9F0430768079D7F78089E5D
:107D9000DDF828E0DDF82C90DDF83080DDF834C027
:107DA000062F1446099A12D1C9F800200893CDF87D
:107DB0003480CDF830C0CDF82CE00A9609950794B0
:107DC0000B46406B0121BDE8F04302F00CBE0148B8
:107DD000BDE8F083809FFFFF30B505686D7887B000
:107DE000062D0C460C9917D10E9D29600D9D059509
:107DF0000B9D0495109D03950F9D02950A9D8DE89E
:107E000028001346406B224602F012FE044B10F18C
:107E1000120F08BF184600E0024807B030BD00BF8F
:107E2000009DFFFF809FFFFF10B5044602F02CFE6F
:107E30002046BDE810400DF03FBF10B54FF4C071B3
:107E4000012010F023FC044608B102F087FB204615
:107E500010BD13460A46022102F085BB10B5044648
:107E6000FDF77DFA2046BDE810400DF025BF10B5A6
:107E70004FF48C71012010F009FC044608B1FDF7A5
:107E800069FA204610BDFDF76BBBFDF76FBAFDF731
:107E900065BF2DE9FF410A9E1D46174633462A4617
:107EA0000446884601F044FF48B902908DE860001E
:107EB00004F1280342463946204601F08BFD04B008
:107EC000BDE8F081F0B58FB0044605A817461E4600
:107ED0000D4600F0B9FF00230293159B0193149BFC
:107EE000009320463B46324605A901F073FD044647
:107EF00050B905A801F0B2FB28B905A92846FEF73C
:107F0000AEFB044600E0034C05A800F0DAFF204673
:107F10000FB0F0BD80B0FFFF10B5044600F0A2FF27
:107F200004F17C00FEF71BFB04F1880000F08CFFDD
:107F300004F1AC0000F088FF04F1D000FEF70FFB65
:107F400004F1E00000F080FF04F5827000F07CFF97
:107F500004F59470FEF703FB0023C4F8DC3010BD79
:107F600010B50446F8B1E03000F0ABFF04F58270C4
:107F700000F0A7FF04F59470FEF7F7FA204600F032
:107F8000B0FF04F17C00FEF7F0FA04F1880000F085
:107F900098FF04F1AC0000F094FF04F1D000BDE8BC
:107FA0001040FEF7E2BA10BD73B516460A680446E3
:107FB000B21A0DF107000D4601F010FC78B99DF8DA
:107FC0000710204602F0CCF908B1064807E02B68FC
:107FD0002A46F31A04F1AC01204601F0CFFB02B0AF
:107FE00070BD00BF80B1FFFF2DE9F7430F46816DE3
:107FF000D0F8DC609046994604460A9B0B9AA9B1DA
:1080000000F18805009200F17C012A46FFF741FF4C
:1080100068B93B46324629462046CDF82C90CDF82B
:10802000288003B0BDE8F04301F0C0BB014803B0B5
:10803000BDE8F08380B0FFFF2DE9F3411646984676
:108040000F46089B099A044608B9144822E0816D3E
:108050000029FAD000F1D0050192009300F1AC02A2
:1080600000F17C032946FFF72DFF98B92846FEF75B
:10807000BDFB8045E9D3A26D12F0070318BF0123B1
:1080800003EBD202314628463A6002B0BDE8F04127
:10809000FEF7E9BB02B0BDE8F08100BF80B0FFFF92
:1080A000F8B5C46D0734E4089C420E4628BF1C4650
:1080B0001146054622463046FEF79EFB0746C0B9EC
:1080C000E96DE4008C420DD84C3529463046FEF768
:1080D0002DFD00280DDB2A4631463046BDE8F8402C
:1080E000FEF73ABE611A3046FEF741FC0028EBD09D
:1080F00007463846F8BD00002DE9F04F9B46436D1A
:108100009BB006468A46154673B101215846FEF7D4
:1081100052FD00280ADB06F14C0739465846FEF7A7
:1081200005FD002802DA03E05448A4E05448A2E028
:1081300011A808AC00F088FE2046FEF710FA0BA844
:10814000FEF70DFA0EA8FEF70AFA0DF11809002342
:108150000793C846059359F8043F0A2B01DD494BA4
:108160007AE0059BC8F8003006F12803049358F81C
:10817000043B0A2BF3DC279B269A2146304601F06C
:10818000D7FD0346002867D1299B0193289B0290C5
:1081900000932246049B11A9304601F01BFC0346C4
:1081A000002859D13A4611A95046FFF75FF8034617
:1081B000002851D101465046FEF7FDFC0028D6D0DC
:1081C000259B249A0BA93046FFF76AFF0346002837
:1081D00042D1299B289A0EA9304601F0A9FD0346F9
:1081E000002839D15A4651462846FEF703FE034679
:1081F00090BB0BA92A460846FEF78DFD034658BBE7
:108200000BA90EAA0846FEF7F5FD034620BB0EAAF1
:1082100021462046FEF7EEFD0346E8B93A462146E0
:108220002846FFF72DFB0346B0B90BAA294628467E
:10823000FEF7E0FD034678B93A4629462846FFF79F
:1082400015F8034640B9014604902846FEF7B3FCF2
:10825000049B00283FF47FAF11A8049300F031FE87
:1082600008A8FEF782F90BA8FEF77FF90EA8FEF723
:108270007CF9049B18461BB0BDE8F08F80B0FFFF6F
:1082800080B3FFFF00B3FFFF2DE9F0419AB006462F
:1082900011A898460C46174600F0D6FD05A8FEF733
:1082A0005EF908A8FEF75BF90BA8FEF758F90EA8CF
:1082B000FEF755F9736D002B68D001212098FEF769
:1082C0007AFC002850DB06F14C0529462098FEF781
:1082D0002DFC002848DA01212198FEF76CFC0028CB
:1082E00042DB29462198FEF721FC00283CDA224691
:1082F0003B4605A93046FFF7D3FE0446002834D19B
:108300002A46219908A8FFF7BBFA044668BB08AAC9
:1083100005A90BA8FEF76EFD044630BB0BA92A4643
:108320000846FEF7A3FF0446F8B908AA20990EA84C
:10833000FEF760FD0446C0B90EAF2A4639463846FE
:10834000FEF794FF044680B902908DE8800106F1A3
:1083500028030BAA11A9304601F0B0FC044620B94D
:1083600011A801F07BF998B1124C11A800F0A9FDF9
:1083700005A8FEF7FAF808A8FEF7F7F80BA8FEF72D
:10838000F4F80EA8FEF7F1F8204610E00A480EE0D7
:1083900011A92A460846FEF769FF04460028E4D1E1
:1083A000209911A8FEF7C2FB0028DED0DCE71AB046
:1083B000BDE8F08100B2FFFF80B0FFFF2DE9F04182
:1083C000B2B0044608A8174698463A9D3B9EFEF771
:1083D000C6F80BA8FEF7C3F88DE880010596049552
:1083E0000396029504F17C030BAA08A92046FFF727
:1083F00083FE074670BB32AE0DF1C50346F8AC3DB7
:108400000BAA0EA93046FDF7CEFE041E21DB08AAFA
:108410000EA93046FDF7C7FE002819DB25182A46AD
:108420000EA93046FDF73DFE041E12DB30220EA9D8
:108430003046FDF7AAFE00280ADB2C4404442246FD
:108440000799389810F047F9399B1C603C4600E0CA
:108450000446274608A8FEF788F80BA8FEF785F81B
:10846000384632B0BDE8F08110B586B000240494DF
:108470000B9C03940A9C0294099C0194089C009410
:10848000FFF79CFF06B010BD2DE9F0438BB004AEA2
:10849000129D0293044607AF30461D44884691461C
:1084A000FEF75DF83846FEF75AF8302303AA29464E
:1084B00002A8FDF7B3FC98B9039B029A13449D42AE
:1084C0000CD13246294602A8FDF7F9FC40B93A46DC
:1084D000294602A8FDF7F3FC10B904E00F4C12E0A6
:1084E000A0F59F440FE004F1880320468DE8C0000A
:1084F0004A464146FFF7C8FE044620B9084B029A97
:10850000954218BF1C463046FEF72FF83846FEF756
:108510002CF820460BB0BDE8F08300BF1AB0FFFF77
:1085200000B4FFFF13B500240194049C0094FFF7EE
:10853000ABFF02B010BD00F0B6BC08B100F001BD49
:10854000704770B505460E4600F021FD044678B927
:1085500006F17C0105F17C00FEF781F8044638B98C
:1085600006F1880105F1880000F0FBFC044610B11B
:108570002846FFF7E2FF204670BD036B2BB1C36BAB
:10858000002B0CBF022001207047184670470000E6
:1085900038B54B6E04460D462BB90A1DBDE8384070
:1085A0000146FEF763BE0368002B07DB2046FEF79B
:1085B000FDF8AB6DB0EB430F22D804E00021FEF7CD
:1085C000FAFAE8B9F2E76B6E2046984708BB043523
:1085D0002368002B04DA00212046FEF7ECFA88B964
:1085E00029462046FEF7A2FA002807DB2A46214644
:1085F0002046FEF750FB0028F2D038BD002038BDE1
:10860000044838BD2A4621462046FEF784FB002850
:10861000DED038BD80B0FFFF2DE9F04F8DB00646AB
:1086200003AD684689469046FDF799FF2846FDF759
:1086300096FF06A8FDF793FF09A8FDF790FFB36921
:10864000002B3FD108F1180211462846FEF7D2FB55
:108650000446002840F0058231462846FFF798FF7F
:108660000446002840F0FD812A46414606A8FEF750
:1086700052FB0446002840F0F481371D394606A815
:10868000FEF754FA002808DB06A93A460846FEF72A
:1086900002FB04460028F1D0E3E12A46414609A83E
:1086A000FEF75AFB0446002840F0DB81099B002BB3
:1086B00080F22081002109A8FEF77DFA002840F011
:1086C000408117E1424641462846FEF793FB0446A7
:1086D000002840F0C68131462846FFF759FF04467E
:1086E000002840F0BE81032229466846FEF7F1FBD0
:1086F0000446002840F0B581371D39466846FEF72C
:1087000015FA002808DB3A4669466846FEF7C3FAC0
:1087100004460028F1D0A4E106F1100A00215046D9
:10872000FEF749FA002848D008F1180211462846F9
:10873000FEF760FB0446002840F09381314628464E
:10874000FFF726FF0446002840F08B812A46294681
:1087500006A8FEF74FFB0446002840F08281314610
:1087600006A8FFF715FF0446002840F07A8152461C
:1087700006A92846FEF73EFB0446002840F071811A
:1087800031462846FFF704FF0446002840F069817F
:108790002A4669466846FEF7BEFA0446002840F0BD
:1087A000608139466846FEF7C1F9002805DB3A4684
:1087B00069466846FEF76FFAEFE708F10C0B5A4678
:1087C000594606A8FEF716FB0446002840F04981EA
:1087D000314606A8FFF7DCFE0446002840F0418140
:1087E000012106A8FEF774F80446002840F03981FC
:1087F000371D394606A8FEF799F9002808DB06A9B7
:108800003A460846FEF747FA04460028F1D028E128
:1088100006AA41462846FEF7EDFA0446002840F035
:10882000208131462846FFF7B3FE0446002840F079
:10883000188101212846FEF74BF80446002840F035
:10884000108139462846FEF771F9002805DB3A46C3
:1088500029462846FEF71FFAEFE706AA114609A89F
:10886000FEF7C8FA0446002840F0FB80314609A80C
:10887000FFF78EFE0446002840F0F380012109A88E
:10888000FEF726F80446002840F0EB80394609A898
:10889000FEF74CF9002805DB09A93A460846FEF721
:1088A000FAF9EFE76A46694606A8FEF7A3FA044616
:1088B000002840F0D680314606A8FFF769FE04463E
:1088C000002840F0CE8006A92A460846FEF744FA62
:1088D0000446002840F0C580069B002B37DA0021B3
:1088E00006A8FEF768F990B306A93A460846FEF7CF
:1088F00012FAEDE709AA06A92846FEF77BFA044614
:10890000002840F0AE8031462846FFF741FE04467D
:10891000002840F0A680032229466846FEF7D9FACF
:108920000446002840F09D8039466846FEF7FEF870
:108930000028FFF642AF3A4669466846FEF7ABF9B3
:10894000EEE709A93A460846FEF7E5F9AAE606A9C0
:108950002A460846FEF700FA0446002840F08180C7
:10896000069B002B04DA002106A8FEF724F928B99B
:1089700006AA29462846FEF7EFF912E006A93A466C
:108980000846FEF7C8F9E7E7039B002B0DDA002144
:108990002846FEF710F940B13A4629462846FEF728
:1089A000BAF904460028EFD05BE06A46294628461B
:1089B000FEF720FA0446002853D131462846FFF737
:1089C000E7FD044600284CD109AA29462846FEF7AF
:1089D000C3F90446002844D1AA46039B002B04DABD
:1089E00000215046FEF7E7F898BB08F118025946F7
:1089F00009A8FEF7FFF9044698BB314609A8FFF71E
:108A0000C7FD044668BB012109A8FDF761FF0446C4
:108A100038BB394609A8FEF789F8002805DB09A903
:108A20003A460846FEF737F9F1E706A94846FDF74A
:108A300016FE0446A8B903A909F10C00FDF70FFEC4
:108A4000044670B909A909F11800FDF708FE0446AB
:108A500007E03A4651465046FEF75DF904460028C5
:108A6000BBD06846FDF781FD2846FDF77EFD06A8D0
:108A7000FDF77BFD09A8FDF778FD20460DB0BDE8A8
:108A8000F08FF0B501F1180787B006460D4638465D
:108A90000021FEF790F800284DD06846FDF75FFDF5
:108AA00003A8FDF75CFD321D39466846FEF7E8FE77
:108AB0000446C8BB6A46694603A8FEF79BF904460C
:108AC00090BB314603A8FFF763FD044660BB03AAD1
:108AD00029462846FEF78EF9044628BB314628462B
:108AE000FFF756FD0446F8B90C3503AA2946284677
:108AF000FEF780F90446B8B931462846FFF748FD2D
:108B0000044688B96A4629462846FEF773F90446A2
:108B100050B931462846FFF73BFD044620B90121F4
:108B20003846FDF7FDFD04466846FDF71EFD03A827
:108B3000FDF71BFD204607B0F0BD00002DE9F04712
:108B4000012A8AB007460D46914603D80968FFF707
:108B500098FFF1E00C2110460FF098FD80460028A8
:108B600000F0E98000240C2606FB04800134FDF7A8
:108B7000F6FCA145F8D101A8FDF7F1FC04A8FDF72A
:108B8000EEFC07A8FDF7EBFC296840461831FDF71D
:108B900066FD0446002840F0B78008F10C064FF04F
:108BA000010A55F82A20A6F10C0118323046FEF7CA
:108BB00021F90446002840F0A78039463046FFF7E7
:108BC000E7FC0446002840F09F800AF1010AD145E5
:108BD00006F10C06E5D10C2606FB09F6A6F10C0100
:108BE0003A1D414401A8FEF74BFE0446002840F020
:108BF0008B80183E09F1FF3A05EB89054644BAF12E
:108C0000000F0ED101A904A8FDF729FD0446002894
:108C10007AD104AA114607A8FEF7ECF80446F0B191
:108C200072E0324601A904A8FEF7E4F804460028E1
:108C30006AD1394604A8FFF7ABFC0446002863D18B
:108C400055F8042C01A918320846FEF7D3F804465B
:108C5000002859D1394601A8FFF79AFCD6E73946D2
:108C600007A8FFF795FC044600284DD155F8041CD1
:108C700007AA0846FEF7BEF80446002844D1394644
:108C800055F8040CFFF784FC044600283CD155F845
:108C9000041C0C3107AA0846FEF7ACF8044698BB42
:108CA00055F8040C39460C30FFF772FC044658BBEB
:108CB00055F8041C0C3104AA0846FEF79BF804463C
:108CC00010BB55F8040C39460C30FFF761FC044624
:108CD000D0B9B96855F8040CFDF783FC044698B97F
:108CE00055F8040CB9680C30FDF77BFC044658B904
:108CF00055F8040D1830FDF738FC0C3EBAF1000FA2
:108D000002D00AF1FF3A7AE701A8FDF72EFC04A889
:108D1000FDF72BFC07A8FDF728FC00250C2606FB19
:108D200005800135FDF721FCA945F8D140460CF03E
:108D3000C3FF204600E002480AB0BDE8F08700BF4C
:108D400080B2FFFF7FB50C4605460C3401A81646DD
:108D5000FDF705FC291D224601A8FDF7FDFF05468C
:108D600068B901462046FDF726FF01A900280CBF7F
:108D7000002206F001022046FDF79DFC054601A8F1
:108D8000FDF7F3FB284604B070BD2DE9F74F9DF8C1
:108D9000307080460E469B46C7F3450A02F10C042C
:108DA000002501F10C095D4517D0EBB2CAEB0302B7
:108DB000534253411A46A4F10C0130460193FDF78A
:108DC0007AFC90B9019B21461A464846FDF773FC90
:108DD000013524340028E6D007E0FA093146404640
:108DE00003B0BDE8F04FFFF7ADBF03B0BDE8F08FB3
:108DF000054B196829B9054A0320107051700122EA
:108E00001A600248704700BF9CE30320A0E30320E0
:108E1000054B1A781AB1824203D00C33F9E7104699
:108E200070471846704700BF688E0E00054B1A78D1
:108E300022B15A88824203D00C33F8E710467047BB
:108E400018467047688E0E0010B50446FDF787FB84
:108E500004F10C00FDF783FB04F11800BDE810409D
:108E6000FDF77DBB38B50025044600F8045BFDF72F
:108E700076FB04F11000FDF772FB04F11C00FDF716
:108E80006EFB04F12800FFF7DFFF04F14C00FDF753
:108E900066FBA565E56525666566A566E5662567E5
:108EA0006567A56738BD10B50446FFF7DBFF04F121
:108EB0007C00FDF754FB04F18800BDE81040FFF78B
:108EC000C3BF10B5044658B1FDF74FFB04F10C00C9
:108ED000FDF74BFB04F11800BDE81040FDF745BB62
:108EE00010BD70B5044658B3036E012B12D0043088
:108EF000FDF73BFB04F11000FDF737FB04F11C000C
:108F0000FDF733FB04F12800FFF7DBFF04F14C0011
:108F1000FDF72BFB636F6BB100252426A36F606FF9
:108F20009D4205D206FB0500FFF7CBFF0135F5E7B3
:108F30000CF0C2FE20467C21BDE8704003F0E2BB8D
:108F400070BD10B5044658B1FFF7CBFF04F17C00AB
:108F5000FDF70BFB04F18800BDE81040FFF7B1BF3F
:108F600010BD38B504460D46FDF779FB70B905F123
:108F70000C0104F10C00FDF772FB38B905F1180182
:108F800004F11800BDE83840FDF769BB38BD097829
:108F900001F0E6B910B501210446FDF7C1FB60B947
:108FA000012104F10C00FDF7BBFB30B9014604F1CF
:108FB0001800BDE81040FDF7B3BB10BD2DE9F04728
:108FC00002F1180996B005460E4648460021904623
:108FD0001F46FDF7F0FD08B9394608E03B6A53B17A
:108FE000002107F11800FDF7E6FD20B941463046A3
:108FF000FFF7B7FFBDE13B6A3BB1012107F1180064
:10900000FDF7D9FD002840F0958001A8FDF7A7FAEB
:1090100004A8FDF7A4FA07A8FDF7A1FA0AA8FDF72E
:109020009EFA0DA8FDF79BFA10A8FDF798FA13A871
:10903000FDF795FA4A46494601A8FDF7DBFE0446CE
:10904000002860D1294601A8FFF7A2FA04460028AB
:1090500059D14A4601A904A8FDF7CCFE04460028D0
:1090600051D1294604A8FFF793FA044600284AD1B3
:1090700001A93A460846FDF7BDFE0446002842D144
:10908000294601A8FFF784FA044600283BD104A929
:1090900007F10C020846FDF7ADFE0446002832D168
:1090A000294604A8FFF774FA044660BB01A94246AA
:1090B0000846FDF751FE044628BB2F1D019B002BDF
:1090C00005DA002101A8FDF776FD002834D104A9B6
:1090D00008F10C0A52460846FDF73EFE044690B9D8
:1090E0002F1D049B002B30DB002101A8FDF763FD41
:1090F0000146002838D001AA494613A8FDF77AFE98
:10910000044600283ED001A8FDF72FFA04A8FDF779
:109110002CFA07A8FDF729FA0AA8FDF726FA0DA8E8
:10912000FDF723FA10A8FDF720FA13A8FDF71DFAA2
:1091300020461EE190481CE101A93A460846FDF789
:10914000EAFD04460028B9D0DDE7002104A8FDF7B8
:1091500032FD0028C8D004A93A460846FDF7DBFDD9
:1091600004460028BDD0CEE704A8FDF724FD28B9A9
:10917000424631462846FFF74FFACEE03046FFF729
:1091800009FFCAE0294613A8FFF702FA044600289F
:10919000B9D101AA114607A8FDF72CFE0446002804
:1091A000B1D1294607A8FFF7F3F904460028AAD150
:1091B00001AA07A90AA8FDF71DFE04460028A2D1AE
:1091C00029460AA8FFF7E4F9044600289BD107A91D
:1091D00042460846FDF70EFE0446002893D1294674
:1091E00007A8FFF7D5F9044600288CD1022207A969
:1091F00001A8FDF76EFE0446002884D12F1D3946D4
:1092000001A8FDF793FC002808DB01A93A460846AF
:10921000FDF741FD04460028F1D074E704AA114689
:109220000DA8FDF7E7FD044600287FF46CAF294642
:109230000DA8FFF7ADF9044600287FF464AF0DA92F
:1092400001AA0846FDF788FD044600287FF45BAFBD
:109250000D9B002B05DA00210DA8FDF7ACFC0028C2
:109260005DD10DA90AAA0846FDF776FD044600283F
:109270007FF449AF0D9B002B57DB07A90DAA0846C9
:10928000FDF76AFD044600287FF43DAF079B002BE5
:1092900057DB07A904AA0846FDF7ACFD04460028E1
:1092A0007FF431AF294607A8FFF772F9044600287A
:1092B0007FF429AF0AA952460846FDF79BFD0446F4
:1092C00000287FF420AF29460AA8FFF761F9044679
:1092D00000287FF418AF0AAA07A910A8FDF73CFDE3
:1092E000044600287FF40FAF109B002B35DB0DA93F
:1092F0003046FDF7B4F9044600287FF404AF10A906
:1093000006F10C00FDF7ABF9044600287FF4FBAE34
:1093100013A906F11800FDF7A2F90446F3E60DA91A
:109320003A460846FDF7F7FC8EE700210DA8FDF749
:1093300042FC0028A1D00DA93A460846FDF7EBFCF7
:1093400094E7002107A8FDF736FC0028A1D007A963
:109350003A460846FDF7DFFC94E7002110A8FDF728
:109360002AFC0028C3D010A93A460846FDF7D3FCD2
:10937000B6E716B0BDE8F08780B0FFFF2DE9F04FEB
:10938000D9B00DF1280B0546029358469DF8883157
:1093900003930E4617469DF88CA105F14C09FDF785
:1093A000DEF80DA8FDF7DBF800214846FDF7D4F9FB
:1093B000012878D100213846FDF7CEF93946B0FAB8
:1093C00080F85846FDF74BF94FEA58180446002834
:1093D0005FD13A4649460DA8FDF7BEFC0446002879
:1093E00057D142460DA95846FDF765F904460028B5
:1093F0004FD1649B0DF158095A1C014648460FF0A5
:1094000090F927465B46649ABA421AD04FF0000B97
:109410003A46DA4513D91146184605920493FDF7EA
:109420009BF917F80910649B059A00FA0BF00843A2
:109430001A4407F809000BF1010B049BE9E7013717
:10944000E1E716AB4FF000094FF0010C649A62455A
:1094500003F101031DD3197813F8017C81EA090097
:1094600000F0010E8EF0010E17FB0EF240B252B268
:1094700000EA020A01EA09014AEA0109424047EA10
:10948000CE175FFA89F91A7003F8017C0CF1010C10
:10949000DCE70DA8FDF769F80AA8FDF766F8002CCF
:1094A00040F0D38001E06B4CCFE00DA8FFF7CCFC7F
:1094B000649A16AB31469B5C0093029A039B284644
:1094C000FFF763FC0446002840F0AF8006F118095E
:1094D00001214846FDF724F90446002840F0A58004
:1094E000659B43B9649A58AB9F186FF484731F440B
:1094F0000DF1570993E0AB6D07AF0733DB08384632
:109500000493FDF72CF80AA8FDF729F84FF00C0A90
:1095100005F1040B669B659A04993846FEF77CF9C1
:109520000346002856D159463846FDF7FFFA002871
:1095300004DB01213846FDF71AFAF1E7BAF1010A16
:1095400054D001213846FDF736FB0028E2DD3A46CB
:1095500049464846FDF74EFC034600283AD12946C5
:109560004846FFF715F80346A0BB3A4639460AA815
:10957000FDF740FC034668BB29460AA8FFF708F838
:10958000034638BB0AAA31463046FDF733FC034692
:1095900000BB29463046FEF7FBFF0346D0B90AA9B7
:1095A0003A460846FDF726FC034698B929460AA81C
:1095B000FEF7EEFF034668B906F10C090AAA494610
:1095C0004846FDF717FC034620B929464846FEF7F2
:1095D000DFFF034638460493FCF7C7FF0AA8FCF7F1
:1095E000C4FF049B002B3FF47DAF1BE01A4B19E036
:1095F000324631462846FFF70FF8A8B917F8013967
:109600000093029A039B0DA92846FFF7BEFB58B9A9
:109610000DAB324631462846FFF7D0FC20B94F4506
:10962000E6D102E01C4600E004460DA8FFF749FC25
:109630005CB9424631462846FFF784FB044620B910
:1096400031462846FFF71DFA0446204659B0BDE8CA
:10965000F08F00BF80B0FFFF00B3FFFF08B500210F
:109660001830FDF7A8FAB0FA80F0400908BD0000F4
:109670002DE9F8430E460546002106F118009146F3
:109680009846089C099FFDF796FA48B917B91F48F4
:10969000BDE8F88301232070C8F80030BDE8F883E6
:1096A000281DFDF7A3F80546B9F1000F14D14200BB
:1096B00001329742C8F80020E9D32146042302462C
:1096C00001F8013B3046FDF7CEF8E8B9691C2A469F
:1096D000214406F10C0012E0B9F1010F13D1431C33
:1096E0009F42C8F80030D2D3002106F10C00FDF7EC
:1096F00033F82146023001F8010B2A463046BDE816
:10970000F843FDF7B0B80020BDE8F88300B1FFFFD3
:10971000F8B50C4615461F460BB91648F8BD137828
:1097200033B9012FF9D10846BDE8F840FFF732BC44
:109730000430FDF75BF82B78042B064618D1420065
:1097400001329742E9D10246691C2046FDF754F8E0
:1097500078B9711C3246294404F10C00FDF74CF82D
:1097600038B904F118000121BDE8F840FCF7D8BF72
:109770000148F8BD80B0FFFF80B1FFFF012B30B47E
:1097800015460DD91468621C2A60247844B1013B47
:109790009C4205D813192B60234630BCFFF7B8BF95
:1097A000014830BC704700BF80B0FFFF73B5079C15
:1097B000069E1D4664B1013C0194741C0094FFF7A1
:1097C00057FF30B92B6833702B6801332B6000E0F2
:1097D000014802B070BD00BF80B0FFFF022A10B583
:1097E000044601D80C4810BD0B685A1C0A601A7850
:1097F000032AF7D19A1C0A60DA1C58780A609B7811
:1098000043EA0020FFF712FB18B103782370002011
:1098100010BD024810BD00BF80B0FFFF80B1FFFF48
:10982000F0B50F4687B00546012107F11800FDF796
:10983000C2F9064610BB2846FEF79FFE01281BD141
:1098400031463846FDF7B7F9002817DB07F10C045D
:1098500031462046FDF7AFF900280FDB2E1D3146BB
:109860003846FDF763F9002808DA31462046FDF74F
:109870005DF9002802DA03E0454886E0454884E0C7
:109880006846FCF76CFE03A8FCF769FE22462146F9
:109890006846FDF7AFFA044600284DD129466846D0
:1098A000FEF776FE0446002846D13A46394603A81C
:1098B000FDF7A0FA044600283ED1294603A8FEF78A
:1098C00067FE0446002837D1AB69A3B903A9032278
:1098D0000846FDF779FA044670BB039B002B1EDA9D
:1098E000002103A8FDF767F9C8B103A9324608466D
:1098F000FDF711FAEFE703A905F110020846FDF79D
:109900000AFA0446C0B9314603A8FDF70FF900284A
:1099100005DB03A932460846FDF7BDF9F1E703A9C7
:109920003A460846FDF766FA044628B9294603A8D0
:10993000FEF72EFE044638B16846FCF716FE03A873
:10994000FCF713FE204620E003A905F11C0208469F
:10995000FDF7E1F904460028EED1314603A8FDF7F2
:10996000E5F8002808DB03A932460846FDF793F91D
:109970000028F2D00446DFE703A96846FDF7D6F8D1
:109980000028044C08BF0024D6E707B0F0BD00BF94
:1099900080B0FFFF80B3FFFF38B50C460546FEF7E9
:1099A000ECFD012801460DD12046FDF704F9002801
:1099B0000ADB05F14C012046FDF7B8F8002803DA70
:1099C000002038BD014838BD014838BD80B0FFFFD8
:1099D00080B3FFFF2DE9F04FAFB005460A91114665
:1099E0000B921E46FFF7D8FF8346002840F01381F4
:1099F00031462846FFF714FF8346002840F00B81CC
:109A00002846FEF7BAFD012840F0848005F13401B4
:109A100006F10C00FDF78AF848B905F12801304637
:109A2000FDF784F8B0FA80F94FEA591900E0D946F9
:109A3000EB6DB3F5C07F2CBF05270427B9F1000FEC
:109A400000D00137BB4298BF022707F1FF3801223F
:109A500002FA08F207929DF81C200892013B3B4451
:109A6000B3FBF7F30993B9F1000F01D06C6F24BB7E
:109A7000242107980EF00AFE044600282ED04FF04D
:109A8000000A4FF0240B0BFB0A40FFF7DDF90AF147
:109A9000010A089A5FFA8AF39A42F4D83DE0079BDC
:109AA0000FA95A1E2846FFF749F88346C0B9B9F1F5
:109AB000000F02D0079B6C67AB67399B0493389B00
:109AC0000393099B0293089B0093019723460B9AEB
:109AD0000A992846FFF752FC834601E0DFF840B1BF
